{
  "_format": "hh-sol-artifact-1",
  "contractName": "TodoList",
  "sourceName": "contracts/TodoList.sol",
  "abi": [
    {
      "inputs": [],
      "stateMutability": "nonpayable",
      "type": "constructor"
    },
    {
      "anonymous": false,
      "inputs": [
        {
          "indexed": true,
          "internalType": "address",
          "name": "account",
          "type": "address"
        },
        {
          "indexed": true,
          "internalType": "uint256",
          "name": "userId",
          "type": "uint256"
        },
        {
          "indexed": false,
          "internalType": "string",
          "name": "message",
          "type": "string"
        },
        {
          "indexed": false,
          "internalType": "bool",
          "name": "completed",
          "type": "bool"
        }
      ],
      "name": "TodoEvent",
      "type": "event"
    },
    {
      "inputs": [],
      "name": "_userId",
      "outputs": [
        {
          "internalType": "uint256",
          "name": "",
          "type": "uint256"
        }
      ],
      "stateMutability": "view",
      "type": "function"
    },
    {
      "inputs": [
        {
          "internalType": "string",
          "name": "_message",
          "type": "string"
        }
      ],
      "name": "createList",
      "outputs": [],
      "stateMutability": "nonpayable",
      "type": "function"
    },
    {
      "inputs": [],
      "name": "getAddress",
      "outputs": [
        {
          "internalType": "address[]",
          "name": "",
          "type": "address[]"
        }
      ],
      "stateMutability": "view",
      "type": "function"
    },
    {
      "inputs": [
        {
          "internalType": "uint256",
          "name": "uId",
          "type": "uint256"
        }
      ],
      "name": "getCreatorData",
      "outputs": [
        {
          "internalType": "address",
          "name": "",
          "type": "address"
        },
        {
          "internalType": "uint256",
          "name": "",
          "type": "uint256"
        },
        {
          "internalType": "string",
          "name": "",
          "type": "string"
        },
        {
          "internalType": "bool",
          "name": "",
          "type": "bool"
        }
      ],
      "stateMutability": "view",
      "type": "function"
    },
    {
      "inputs": [],
      "name": "getMessage",
      "outputs": [
        {
          "internalType": "string[]",
          "name": "",
          "type": "string[]"
        }
      ],
      "stateMutability": "view",
      "type": "function"
    },
    {
      "inputs": [
        {
          "internalType": "uint256",
          "name": "",
          "type": "uint256"
        }
      ],
      "name": "messages",
      "outputs": [
        {
          "internalType": "string",
          "name": "",
          "type": "string"
        }
      ],
      "stateMutability": "view",
      "type": "function"
    },
    {
      "inputs": [
        {
          "internalType": "uint256",
          "name": "",
          "type": "uint256"
        }
      ],
      "name": "msgCreators",
      "outputs": [
        {
          "internalType": "address",
          "name": "",
          "type": "address"
        }
      ],
      "stateMutability": "view",
      "type": "function"
    },
    {
      "inputs": [
        {
          "internalType": "uint256",
          "name": "",
          "type": "uint256"
        }
      ],
      "name": "msgIds",
      "outputs": [
        {
          "internalType": "uint256",
          "name": "",
          "type": "uint256"
        }
      ],
      "stateMutability": "view",
      "type": "function"
    },
    {
      "inputs": [],
      "name": "owner",
      "outputs": [
        {
          "internalType": "address",
          "name": "",
          "type": "address"
        }
      ],
      "stateMutability": "view",
      "type": "function"
    },
    {
      "inputs": [
        {
          "internalType": "uint256",
          "name": "",
          "type": "uint256"
        }
      ],
      "name": "todoListMap",
      "outputs": [
        {
          "internalType": "address",
          "name": "account",
          "type": "address"
        },
        {
          "internalType": "uint256",
          "name": "userId",
          "type": "uint256"
        },
        {
          "internalType": "string",
          "name": "message",
          "type": "string"
        },
        {
          "internalType": "bool",
          "name": "completed",
          "type": "bool"
        }
      ],
      "stateMutability": "view",
      "type": "function"
    },
    {
      "inputs": [
        {
          "internalType": "uint256",
          "name": "uId",
          "type": "uint256"
        }
      ],
      "name": "toggle",
      "outputs": [],
      "stateMutability": "nonpayable",
      "type": "function"
    }
  ],
  "bytecode": "0x608060405234801561001057600080fd5b5033600160006101000a81548173ffffffffffffffffffffffffffffffffffffffff021916908373ffffffffffffffffffffffffffffffffffffffff1602179055506113a1806100616000396000f3fe608060405234801561001057600080fd5b50600436106100a95760003560e01c8063abc9b87a11610071578063abc9b87a14610166578063b8dcc68f14610196578063bc4530e7146101b2578063ce6d41de146101d0578063dd5a3d08146101ee578063f9d4b97c14610221576100a9565b80630d80fefd146100ae57806338cc4831146100de5780635c8175c4146100fc578063751ef7531461012c5780638da5cb5b14610148575b600080fd5b6100c860048036038101906100c39190610a52565b610254565b6040516100d59190610b0f565b60405180910390f35b6100e6610300565b6040516100f39190610c21565b60405180910390f35b61011660048036038101906101119190610a52565b61038e565b6040516101239190610c52565b60405180910390f35b61014660048036038101906101419190610a52565b6103cd565b005b6101506104ba565b60405161015d9190610c52565b60405180910390f35b610180600480360381019061017b9190610a52565b6104e0565b60405161018d9190610c7c565b60405180910390f35b6101b060048036038101906101ab9190610cfc565b610504565b005b6101ba6106dc565b6040516101c79190610c7c565b60405180910390f35b6101d86106e2565b6040516101e59190610e55565b60405180910390f35b61020860048036038101906102039190610a52565b6107bb565b6040516102189493929190610e92565b60405180910390f35b61023b60048036038101906102369190610a52565b610914565b60405161024b9493929190610e92565b60405180910390f35b6003818154811061026457600080fd5b90600052602060002001600091509050805461027f90610f0d565b80601f01602080910402602001604051908101604052809291908181526020018280546102ab90610f0d565b80156102f85780601f106102cd576101008083540402835291602001916102f8565b820191906000526020600020905b8154815290600101906020018083116102db57829003601f168201915b505050505081565b6060600280548060200260200160405190810160405280929190818152602001828054801561038457602002820191906000526020600020905b8160009054906101000a900473ffffffffffffffffffffffffffffffffffffffff1673ffffffffffffffffffffffffffffffffffffffff168152602001906001019080831161033a575b5050505050905090565b6002818154811061039e57600080fd5b906000526020600020016000915054906101000a900473ffffffffffffffffffffffffffffffffffffffff1681565b3373ffffffffffffffffffffffffffffffffffffffff166005600083815260200190815260200160002060000160009054906101000a900473ffffffffffffffffffffffffffffffffffffffff1673ffffffffffffffffffffffffffffffffffffffff1614610471576040517f08c379a000000000000000000000000000000000000000000000000000000000815260040161046890610fb0565b60405180910390fd5b60006005600083815260200190815260200160002090508060030160009054906101000a900460ff16158160030160006101000a81548160ff0219169083151502179055505050565b600160009054906101000a900473ffffffffffffffffffffffffffffffffffffffff1681565b600481815481106104f057600080fd5b906000526020600020016000915090505481565b600060056000805481526020019081526020016000209050338160000160006101000a81548173ffffffffffffffffffffffffffffffffffffffff021916908373ffffffffffffffffffffffffffffffffffffffff1602179055506000548160010181905550828282600201918261057d9291906111b6565b5060008160030160006101000a81548160ff0219169083151502179055506105a36109f9565b6002339080600181540180825580915050600190039060005260206000200160009091909190916101000a81548173ffffffffffffffffffffffffffffffffffffffff021916908373ffffffffffffffffffffffffffffffffffffffff16021790555060038383909180600181540180825580915050600190039060005260206000200160009091929091929091929091925091826106439291906111b6565b506004600054908060018154018082558091505060019003906000526020600020016000909190919091505580600101543373ffffffffffffffffffffffffffffffffffffffff167f5f243ec96aee4dbbc51012c7344c9b98aa9b6e8899af433a569556fc308edd4e85858560030160009054906101000a900460ff166040516106cf939291906112c2565b60405180910390a3505050565b60005481565b60606003805480602002602001604051908101604052809291908181526020016000905b828210156107b257838290600052602060002001805461072590610f0d565b80601f016020809104026020016040519081016040528092919081815260200182805461075190610f0d565b801561079e5780601f106107735761010080835404028352916020019161079e565b820191906000526020600020905b81548152906001019060200180831161078157829003601f168201915b505050505081526020019060010190610706565b50505050905090565b6000806060600080600560008781526020019081526020016000206040518060800160405290816000820160009054906101000a900473ffffffffffffffffffffffffffffffffffffffff1673ffffffffffffffffffffffffffffffffffffffff1673ffffffffffffffffffffffffffffffffffffffff1681526020016001820154815260200160028201805461085190610f0d565b80601f016020809104026020016040519081016040528092919081815260200182805461087d90610f0d565b80156108ca5780601f1061089f576101008083540402835291602001916108ca565b820191906000526020600020905b8154815290600101906020018083116108ad57829003601f168201915b505050505081526020016003820160009054906101000a900460ff161515151581525050905080600001518160200151826040015183606001519450945094509450509193509193565b60056020528060005260406000206000915090508060000160009054906101000a900473ffffffffffffffffffffffffffffffffffffffff169080600101549080600201805461096390610f0d565b80601f016020809104026020016040519081016040528092919081815260200182805461098f90610f0d565b80156109dc5780601f106109b1576101008083540402835291602001916109dc565b820191906000526020600020905b8154815290600101906020018083116109bf57829003601f168201915b5050505050908060030160009054906101000a900460ff16905084565b600080815480929190610a0b90611323565b9190505550565b600080fd5b600080fd5b6000819050919050565b610a2f81610a1c565b8114610a3a57600080fd5b50565b600081359050610a4c81610a26565b92915050565b600060208284031215610a6857610a67610a12565b5b6000610a7684828501610a3d565b91505092915050565b600081519050919050565b600082825260208201905092915050565b60005b83811015610ab9578082015181840152602081019050610a9e565b60008484015250505050565b6000601f19601f8301169050919050565b6000610ae182610a7f565b610aeb8185610a8a565b9350610afb818560208601610a9b565b610b0481610ac5565b840191505092915050565b60006020820190508181036000830152610b298184610ad6565b905092915050565b600081519050919050565b600082825260208201905092915050565b6000819050602082019050919050565b600073ffffffffffffffffffffffffffffffffffffffff82169050919050565b6000610b8882610b5d565b9050919050565b610b9881610b7d565b82525050565b6000610baa8383610b8f565b60208301905092915050565b6000602082019050919050565b6000610bce82610b31565b610bd88185610b3c565b9350610be383610b4d565b8060005b83811015610c14578151610bfb8882610b9e565b9750610c0683610bb6565b925050600181019050610be7565b5085935050505092915050565b60006020820190508181036000830152610c3b8184610bc3565b905092915050565b610c4c81610b7d565b82525050565b6000602082019050610c676000830184610c43565b92915050565b610c7681610a1c565b82525050565b6000602082019050610c916000830184610c6d565b92915050565b600080fd5b600080fd5b600080fd5b60008083601f840112610cbc57610cbb610c97565b5b8235905067ffffffffffffffff811115610cd957610cd8610c9c565b5b602083019150836001820283011115610cf557610cf4610ca1565b5b9250929050565b60008060208385031215610d1357610d12610a12565b5b600083013567ffffffffffffffff811115610d3157610d30610a17565b5b610d3d85828601610ca6565b92509250509250929050565b600081519050919050565b600082825260208201905092915050565b6000819050602082019050919050565b600082825260208201905092915050565b6000610d9182610a7f565b610d9b8185610d75565b9350610dab818560208601610a9b565b610db481610ac5565b840191505092915050565b6000610dcb8383610d86565b905092915050565b6000602082019050919050565b6000610deb82610d49565b610df58185610d54565b935083602082028501610e0785610d65565b8060005b85811015610e435784840389528151610e248582610dbf565b9450610e2f83610dd3565b925060208a01995050600181019050610e0b565b50829750879550505050505092915050565b60006020820190508181036000830152610e6f8184610de0565b905092915050565b60008115159050919050565b610e8c81610e77565b82525050565b6000608082019050610ea76000830187610c43565b610eb46020830186610c6d565b8181036040830152610ec68185610ad6565b9050610ed56060830184610e83565b95945050505050565b7f4e487b7100000000000000000000000000000000000000000000000000000000600052602260045260246000fd5b60006002820490506001821680610f2557607f821691505b602082108103610f3857610f37610ede565b5b50919050565b7f4f6e6c7920757365722077686f206372656174656420746865206c6973742c2060008201527f63616e20746f67676c6520697400000000000000000000000000000000000000602082015250565b6000610f9a602d83610a8a565b9150610fa582610f3e565b604082019050919050565b60006020820190508181036000830152610fc981610f8d565b9050919050565b600082905092915050565b7f4e487b7100000000000000000000000000000000000000000000000000000000600052604160045260246000fd5b60008190508160005260206000209050919050565b60006020601f8301049050919050565b600082821b905092915050565b60006008830261106c7fffffffffffffffffffffffffffffffffffffffffffffffffffffffffffffffff8261102f565b611076868361102f565b95508019841693508086168417925050509392505050565b6000819050919050565b60006110b36110ae6110a984610a1c565b61108e565b610a1c565b9050919050565b6000819050919050565b6110cd83611098565b6110e16110d9826110ba565b84845461103c565b825550505050565b600090565b6110f66110e9565b6111018184846110c4565b505050565b5b818110156111255761111a6000826110ee565b600181019050611107565b5050565b601f82111561116a5761113b8161100a565b6111448461101f565b81016020851015611153578190505b61116761115f8561101f565b830182611106565b50505b505050565b600082821c905092915050565b600061118d6000198460080261116f565b1980831691505092915050565b60006111a6838361117c565b9150826002028217905092915050565b6111c08383610fd0565b67ffffffffffffffff8111156111d9576111d8610fdb565b5b6111e38254610f0d565b6111ee828285611129565b6000601f83116001811461121d576000841561120b578287013590505b611215858261119a565b86555061127d565b601f19841661122b8661100a565b60005b828110156112535784890135825560018201915060208501945060208101905061122e565b86831015611270578489013561126c601f89168261117c565b8355505b6001600288020188555050505b50505050505050565b82818337600083830152505050565b60006112a18385610a8a565b93506112ae838584611286565b6112b783610ac5565b840190509392505050565b600060408201905081810360008301526112dd818587611295565b90506112ec6020830184610e83565b949350505050565b7f4e487b7100000000000000000000000000000000000000000000000000000000600052601160045260246000fd5b600061132e82610a1c565b91507fffffffffffffffffffffffffffffffffffffffffffffffffffffffffffffffff82036113605761135f6112f4565b5b60018201905091905056fea26469706673582212208c55711d2831aef19c90f0008ded4a2e66dc768cc2303ec371bf7cf5e9404c6a64736f6c63430008110033",
  "linkReferences": {},
  "deployedLinkReferences": {}
}